:1000000046C060C08CC05EC05DC05CC05BC05AC0F2
:1000100059C058C057C056C055C054C053C0EECA8E
:1000200032C97EC99DC9C2C9EDC900CA17CA56CA1C
:1000300057CA5FCA76CAE0CADFCADECADDCADCCAEE
:10004000A6CADACAD9CAB3CA0902190001010080D6
:10005000640904000001FF00000007058103080097
:1000600064120110010000000881179F0C040100B8
:100070000203011603550053004200740069006E2C
:1000800000790053005000490004030904001124C2
:100090001FBECFE5D2E0DEBFCDBF10E0A0E6B0E0EE
:1000A000EAEBF6E102C005900D92A037B107D9F74F
:1000B00022E0A0E7B0E001C01D92AD31B207E1F748
:1000C00058D8F9CA9DCFA82FB92F80E090E041E021
:1000D00050EA609530E009C02D9182279795879569
:1000E00010F084279527305EC8F36F5FA8F308955A
:1000F000EADF8D939D930895A6E088279927AA9516
:1001000069F00197E1F3B399FCCFB39BFECF81E097
:100110009927A6B3019611F0A871D9F70895CF9346
:10012000CFB7CF93C395B39BE9F7B39B0BC0B39BFA
:1001300009C0B39B07C0B39B05C0B39B03C0B39B6F
:1001400001C0D5C00F92DF93C0916A01DD27CF585F
:10015000DE4F012EB39B03C0DF910F90E6CF2F93AC
:100160000F931F934F932FEF4F6F06B303FB20F9AD
:100170005F933F9350E03BE065C016B301265029E2
:1001800053FDC89556B3012703FB25F92F7306B31A
:10019000B1F05027102713FB26F906B22230F0F0F9
:1001A00000C016B3012703FB27F90126502906B228
:1001B0002430E8F54F77206816B30000F6CF5027BB
:1001C0004F7D206206B2102F000000C006B300264B
:1001D0005029102713FB26F906B2E2CF4F7B06B356
:1001E000206400C0DACF01265029187106B269F1E7
:1001F0004E7F2160012F16B328C0002650294D7F65
:1002000006B22260102F29C0012650294B7F06B26A
:100210002460012F2DC016B301265029477F286086
:10022000000006B22EC04F7E06B3206130C04227C8
:1002300006B3499300265029102706B24FEF13FB4F
:1002400020F9297F16B379F2187159F10126502946
:1002500006B2012703FB21F9237F06B371F20026C2
:1002600050293150D0F006B2102713FB22F9277E17
:1002700016B351F201265029012703FB06B223F9D8
:100280002F7C49F2000006B3102713FB24F9002647
:10029000502906B22F7939F270CF10E21ABF002729
:1002A00019C03B503195C31BD04010E21ABF0881E2
:1002B000033C09F10B34F9F0209168011981110F09
:1002C0001213EDCF4A81441F093651F10D3211F05E
:1002D000013E29F700936F013F915F914F911F916C
:1002E0000F912F91DF910F90CAB7C5FD1BCFCF9112
:1002F000CFBFCF91189520916F01222369F3109100
:100300006D01112379F534307AF130936D0120932A
:10031000690110916A013BE0311B30936A0124C0EE
:1003200000916D010130F4F40AE54F7049F4309109
:10033000610034FD1AC000936100C1E5D1E019C02D
:1003400030915C0134FD11C000935C01CDE5D1E03A
:1003500010C0052710E000C021C0052710E0C89597
:1003600008BB14C03AE501C032ED032EC0E0D0E076
:1003700032E017B31861C39A08B317BB58E120E8FD
:100380004FEF20FF052708BB279517951C3F28F73F
:1003900000004552B0F720FF0527279508BB1795A9
:1003A0001C3FB8F629913A9561F7077E10916E01CE
:1003B000110F08BBC250D04011F01093680110E239
:1003C0001ABF086017B3177E402F477E54E05A9536
:1003D000F1F708BB17BB48BB7FCFCF93DF9360918A
:1003E0006D01635067FDB7C080916A01CCE0D0E039
:1003F000C81BD109CF58DE4F809169018D3209F0B9
:1004000099C0683009F0A5C083EC809351018AE55A
:1004100080936100109271008881807639F0CE015E
:100420003AD2982F8F3F09F474C07AC09A81109203
:100430005A018981811106C010925B012AE531E0E1
:1004400092E062C0853019F490936E015AC08630F4
:1004500009F041C08B81813049F481E690E09093AE
:100460006C0180936B0180E492E132C0823049F4E8
:1004700088E490E090936C0180936B0180E499E1B3
:1004800027C0833019F5911109C089E890E0909355
:100490006C0180936B0180E494E01AC09130B1F05C
:1004A000923049F483E790E090936C0180936B0164
:1004B00080E496E10DC0933049F485E690E0909396
:1004C0006C0180936B0180E098E002C080E490E0D2
:1004D0008093710025C0883069F0893019F49093B9
:1004E00070010FC08A3049F08B3059F48BE480934F
:1004F0005D0107C020E731E002C02AE531E091E06C
:1005000003C02AE531E090E030936C0120936B0149
:1005100007C0888187FD9E8180E88093710007C0B5
:100520008F81811104C08E81891708F4982F9093D0
:1005300060000FC08091710087FF0BC0CE0112D107
:100540008F3F21F48EE18093610003C081111092EE
:10055000600010926D018091610084FF56C080910F
:1005600060008F3F09F451C0C82F893008F0C8E0FF
:100570008C1B809360009091510188E889278093BB
:100580005101CC2389F12091710027FF08C06C2F05
:1005900082E591E0C8D0C82F893088F525C08091C8
:1005A0006B0190916C0126FF0BC0A2E5B1E0FC014C
:1005B0002C2F280F34913D9331962E13FBCF09C079
:1005C000DC01E2E5F1E02C2F2E0F3D9131932E134B
:1005D000FCCF2FEF2C0F30E02F5F3F4F820F931F88
:1005E00090936C0180936B016C2F82E591E080DD2C
:1005F000CC5FCC3041F08FEF8093600004C08FEF70
:1006000080936000CEE1C093610084E196B398715D
:1006100031F48150D9F710926E0110926801C1E057
:100620008111C0E0809170008C1729F0C11101C0C8
:1006300086D3C0937000DF91CF910895AC9A8BB7A9
:1006400080628BBFECE5F1E08BE481838AE58083F7
:100650000895FC01DB01AC014C5F5F4F619128E024
:1006600030E080E890E0782F762309F0C09A70910E
:100670006400072E00C000C000000A94D9F7C29A97
:1006800070916400072E00C000C000000A94D9F7E2
:10069000990FB1999F5FC098C298869521503109F2
:1006A00011F79D93E417F507C9F6089580914D0160
:1006B00090914E019C012F5F3F4F30934E0120934C
:1006C0004D0120914A0127FF02C0880F991F80FD2C
:1006D000286020934601292F26952093470196955F
:1006E00087958093480162E471E086E491E0B1CFA0
:1006F00008C024E02A95F1F7019730F024E02A950C
:10070000F1F700C00197A8F70895DC0100C000C010
:1007100000C000C000C000C087EE93E0E9DF000029
:100720001197A0F70895EF92FF921F93CF93DF9355
:100730001F92CDB7DEB7182F7C018E2D811B861737
:1007400048F46983B3DF80914501F70181937F010C
:100750006981F3CF862F0F90DF91CF911F91FF908A
:10076000EF900895DF92EF92FF920F931F93CF9334
:10077000DF93C62F20918A01211105C0D82F8C014B
:1007800030E6D32E4EC020911C024091890170E0CA
:10079000620F711D50E021E06417750714F420E02A
:1007A00008C0C091890130911C02C31B34E1309311
:1007B0003401382FDC018A2F831B8C1760F4E09101
:1007C0001C0281E08E0F80931C02F0E08D91EC56AC
:1007D000FE4F8083F0CF822F37C08091640090E07D
:1007E00025E0880F991F2A95E1F7E80EF91E809100
:1007F0004B0190914C01E816F90698F462E471E01F
:1008000086E491E026DF80914501909149018913AA
:10081000E4CF90915001891701F390914F0189170E
:10082000E1F2802F8D1B8C1770F4F80181918F01FC
:10083000809349013BDF809146018D2580934601DD
:10084000E12CF12CD4CF81E0DF91CF911F910F915A
:10085000FF90EF90DF90089528B3342F3095232335
:1008600038B3432B680F791F8617970799F0FC015F
:100870003191CF0158E048BB330F5A9500C008F0C2
:1008800028BB00C0000028BB21F000C000C000C091
:10089000F2CFEACF0895CF93DF93EC0129812111A4
:1008A00008C081E28983D0936C01C0936B0198E00A
:1008B00042C2213011F486B30BC16A81223011F497
:1008C00068BB38C2962F362F377041E050E0032EB8
:1008D00002C0440F551F0A94E2F7233009F496C072
:1008E000243021F488B3482B48BB24C2253051F46E
:1008F00060936400B99887B3856287BB88B3887DAD
:1009000088BB18C2263049F4B898C098B998C198E5
:10091000BA98C298BD98C5980DC2273051F4BE014F
:10092000CE01029696DED0936C01C0936B0194E0E9
:1009300002C2283031F4609350018B8180934F01C3
:10094000F9C1EC81FD81F0934E01E0934D01293016
:1009500011F480E203C02B3021F480EA80934A0135
:10096000A9C1EA81FB81F0934C01E0934B012A304D
:1009700011F480E4F3CF2C3011F480ECEFCF2D3064
:1009800021F487B34095482304C02E3021F487B367
:10099000482B47BBCFC12F3009F5611105C08091AD
:1009A000350187B9A59A0CC0613031F480913501C9
:1009B000816087B9A29A04C0623011F48FE887B9C8
:1009C000369A3699FECF84B1888385B18983D093D6
:1009D0006C01C0936B0114BA92E0ADC1203159F49F
:1009E000B89AB99A8AB5806A8ABD8AB583608ABD89
:1009F00083B7856044C0213121F469BD8C8188BDF5
:100A000099C1223109F46ECF233121F488B3409586
:100A100048236ACF243159F486B390E04823592300
:100A200002C0559547953A95E2F7488352C0263162
:100A3000A1F561110AC083B78B7F83BF83B78D7F18
:100A400083BF83B7816083BF76C1613031F483B7E0
:100A50008B7F83BF83B782600FC0623031F483B76E
:100A60008B7F83BF83B7826014C0633051F483B738
:100A7000846083BF83B78D7F83BF83B78E7F83BF3F
:100A800059C1643009F056C183B7846083BF83B70E
:100A90008D7F83BF83B78160F2CF2F3159F48B8173
:100AA00090E0982F8827860F911D90936300809384
:100AB000620040C1203219F41ABC13BE3BC121327E
:100AC00021F46093140281E07FC0223241F483E17B
:100AD0008883D0936C01C0936B0191E02CC12332C9
:100AE000C9F4379A96B18A81892B86B99B81913056
:100AF00059F038F0923009F01DC1809135018069BC
:100B000006C01092350117C180913501806880932D
:100B1000350110C1283249F48BE891E090936C01C3
:100B200080936B019091930106C1293211F482E008
:100B30004BC02A3211F483E00BC02B3211F484E055
:100B400043C02C3211F488E03FC02D3231F489E0EB
:100B50008093340160931402EDC02E3261F48BE077
:100B600080933401609314028B81809315028C81F1
:100B700080931602DFC02F3259F4613031F4B89AF5
:100B8000B99ABA9A60933C01D5C010923C01D2C088
:100B9000203349F4609338018B81809337018C8135
:100BA00080933601C7C0213331F470E07093410166
:100BB00060934001BFC0223311F485E005C02333A8
:100BC00031F46093140286E080933401B3C026337D
:100BD00071F565FF1BC0E0917200E03CB8F48B81B9
:100BE000AE2FB0E0AC58BF4F8C938C81A1E0AE0F1C
:100BF000B0E0AC58BF4F8C9383E08E0F80937200AF
:100C00008D81EE5FF0E0EC58FF4F80838A8184FF96
:100C100091C080917200882309F48CC081E1809397
:100C2000340187B3842B87BB4093730083C0273381
:100C3000A1F480916D0090916E002FD580916D0090
:100C400090916E006B81019628D580916D009091F6
:100C50006E006C81029621D56DC02C3369F58881B8
:100C600087FF0DC080918A01811164C084E991E001
:100C700090936C0180936B01909189015CC06093AB
:100C80008A0190918A01911104C084E1809334011A
:100C900052C080918A01843008F04CC08E818093CC
:100CA000890180918901813818F080E88093890159
:100CB00010921C029FEF3FC0822F807F803EE1F4A4
:100CC0008AE080933401822F877080931402287009
:100CD0002093150220E080911402281758F5822FE6
:100CE00090E00296FE01E80FF91F3081FC01EC5EF6
:100CF000FD4F30832F5FEFCF803FE1F487E080939B
:100D00003401822F8870809314022770209315027B
:100D100020E080911502281768F4822F90E0029657
:100D2000FE01E80FF91F3081FC01EC5EFD4F3083BE
:100D30002F5FEFCF90E0892FDF91CF910895DF9261
:100D4000EF92FF920F931F93CF93DF9308E010E091
:100D5000C0E0D0E8DD2EDC0ED1BECED97C0184E32C
:100D6000E81689E0F8060CF4CD2DD695015011094E
:100D700089F78FEF8C0F81BF0C2F10E00F5F1F4F93
:100D800021B730E0021713078CF0B6D9845399408D
:100D900097FF03C09195819591098E159F0514F4D5
:100DA000C1B77C0181B78F5F81BFEACFC1BF61B797
:100DB00080E090E0DF91CF911F910F91FF90EF9035
:100DC000DF906BC4CF93DF93D82F882311F0B898AE
:100DD00001C0B89AC0E02C2F30E080914001909182
:100DE00041012817390728F481E090E081DCCF5FCA
:100DF000F2CFBA98C0E02C2F30E080914001909162
:100E000041012817390728F481E090E071DCCF5FB9
:100E1000F2CFBA9AC0E02C2F30E08091400190913F
:100E200041012817390728F481E090E061DCCF5FA9
:100E3000F2CFD111B89AC0E08C2F90E02091400100
:100E4000309141018217930728F481E090E050DC53
:100E5000CF5FF2CFDF91CF9108950F931F93CF9380
:100E6000DF93B898C0E08C2F90E020914001309142
:100E700041018217930728F481E090E039DCCF5FCD
:100E8000F2CFBA98C0E000914001109141018C2F3F
:100E900090E08017910728F481E090E029DCCF5F93
:100EA000F2CFD6B3C0E08C2F90E08017910728F4E2
:100EB00081E090E01DDCCF5FF6CFBA9AC0E02C2F26
:100EC00030E080914001909141012817390728F4C2
:100ED00081E090E00DDCCF5FF2CF8D2F8170DF914C
:100EE000CF911F910F910895CF9388B38A7F88BBCC
:100EF000BA98B898C0E08C2F90E0209140013091D2
:100F000041018217930728F481E090E0F1DBCF5F85
:100F1000F2CFCF910895CF9387B38A7F87BBC0E08C
:100F20008C2F90E02091400130914101821793076E
:100F300028F481E090E0DCDBCF5FF2CFB89AC0E02C
:100F40008C2F90E02091400130914101821793074E
:100F500028F481E090E0CCDBCF5FF2CFBA9AC0E01A
:100F60008C2F90E02091400130914101821793072E
:100F700028F481E090E0BCDBCF5FF2CFCF91089501
:100F8000CF93B89AC0E08C2F90E02091400130912F
:100F900041018217930728F481E090E0A9DBCF5F3D
:100FA000F2CFBA9AC0E08C2F90E0209140013091AE
:100FB00041018217930728F481E090E099DBCF5F2D
:100FC000F2CFBA98C0E08C2F90E020914001309190
:100FD00041018217930728F481E090E089DBCF5F1D
:100FE000F2CFB898C0E08C2F90E020914001309172
:100FF00041018217930728F481E090E079DBCF5F0D
:10100000F2CFCF910895CF93DF93D82FC8E08D2FE3
:101010008078D8DEDD0FC150D1F7DF91CF911DCFA1
:10102000FF920F931F93CF93DF93F82ED8E0C0E089
:10103000CC0F13DFC82BD150D9F70091400110918C
:1010400041018D2F90E08017910728F481E090E016
:101050004FDBDF5FF2CFFF2011F080E001C081E0C5
:10106000B1DED0E08D2F90E08017910728F481E069
:1010700090E03EDBDF5FF6CF8C2FDF91CF911F91A9
:101080000F91FF900895A4E9B1E08827F894C59ADC
:10109000BD98EE27FF27319688F0B599FCCF8034B4
:1010A00068F4ED93FD938395EE27FF27319630F09A
:1010B000B59BFCCFED93FD938395EBCF7894880F90
:1010C000809389010895C59ABD9A80918701909176
:1010D0008801A4E9B1E0709189017723C1F0F89407
:1010E000FC01C5986D9158E03197F1F760FDC59A04
:1010F00060FFC598FC013197F1F766955A95B1F7F5
:10110000FC01C59A31963197F1F77A9549F77894B1
:10111000BD98089577278091870190918801A4E96F
:10112000B1E0F894BD98EE27FF273197F1F0B5991B
:10113000FCCFFC01F695E7953197F1F7B599F3CF20
:10114000662758E0FC013197F1F76695B59960681C
:1011500000C05A95B9F76D937395EE27FF27319725
:1011600021F0B59BFCCF7038F0F278947093890130
:10117000089580E287BB88BB80E090E086D28F3FF5
:1011800009F081BF00916D0010916E00C8017DD201
:10119000E82EC801019679D2F82EC801029675D2C0
:1011A000982F80ED8E0D8A3008F05DC280ED8F0D96
:1011B0008A3008F058C280ED890F8A3008F053C297
:1011C00000916D0010916E00C8015FD290E0909385
:1011D000680080936700C801019657D290E0909311
:1011E0006A0080936900C80102964FD290E0909304
:1011F0006C0080936B00BB9A14E18FE090E085DA7D
:101200001150D9F7BB9885E090E09093410180930D
:10121000400110926300109262009EE088E10FB6D8
:10122000F894A89581BD0FBE91BD10923B0110921C
:101230003A01109239011092380110923701109240
:10124000360110923D0110923401F8D97894B89883
:10125000C098B998C198BA98C298BD98C5981AE133
:1012600000E42BE1F22E30E8E32EA895B6D8E09109
:1012700034018E2F90E08531910508F0BDC1FC014D
:10128000E15FFF4F0994B89AB998BA9AC29A10923E
:101290008B018091140280933F01E0923E01809186
:1012A0003E01882309F45AC0C098D12C8D2D90E0BE
:1012B00020916200309163008217930728F481E047
:1012C00090E016DAD394F2CF90913E0180913F01E5
:1012D000892309F0C09AC29880918B01880F80936E
:1012E0008B0196B320918B0191FB882780F9820FA7
:1012F00080938B01D12C8D2D90E020916200309154
:1013000063008217930728F481E090E0F1D9D39429
:10131000F2CFC29A80913E01869580933E01BFCF65
:10132000BA9AC29880EE91E0E3D9DFB6F894C29AF7
:1013300086E490E0DDD9BA9886B382FB882780F9ED
:10134000C82F20E0D22FCE0141E0842780938B016B
:10135000DFBE8AE991E0CCD9BA9AC29A81E014C181
:101360008091140280933E01BA9A98E0D92ECFB6AC
:10137000F894C29880913E0180FF07C086E090E01B
:10138000B7D9C29A80E490E006C08CE390E0B0D96F
:10139000C29A8AE090E0ACD980913E018695809314
:1013A0003E01CFBEDA94D110E2CF26C110928B015C
:1013B00088E0D82E80918B01869580938B01BA9A14
:1013C000CFB6F894C29886E090E092D9C29A8AE0AB
:1013D00090E08ED9BA9886B382FB882780F98093F3
:1013E0003E01CFBE87E390E083D980913E01882300
:1013F00029F080918B01806880938B01DA94D11061
:10140000D9CFACCFBA9ADFB6F894C29886E090E014
:101410006FD9C29A8AE090E06BD9BA9886B382FB02
:10142000882780F980938B01DFBE98CFBA9ADFB608
:10143000F894C2988091140280FF07C086E090E083
:1014400057D9C29A80E490E006C08CE390E050D96E
:10145000C29A8AE090E04CD9DFBECEC0B99AB89863
:10146000BA9AC298F0923F011DB98091140281117D
:10147000C59810923E01E0913E0180911502E81757
:1014800030F5F0E0EA5EFD4F80818FB90EB98091B2
:101490003F018DB9D12C8D2D90E0209162003091CB
:1014A00063008217930728F481E090E021D9D39458
:1014B000F2CF769BECCF80913E01E82FF0E09FB118
:1014C000E557FE4F90838F5F80933E01D4CF80918C
:1014D00014028111C59A80913E0156C005DD8CC071
:1014E00080E090E018DD809114028DDD80933E0154
:1014F00015C0D12C80911402D81650F4ED2DF0E0D7
:10150000EA5EFD4F80817FDD80933E01D394F2CF70
:1015100080911502811134DD80913E0180938B0111
:101520001DCF80911402811102C0D12C19C0B12CA1
:101530002B2D30E08091150290E00197A9014557CD
:101540005E4F6A012817390734F481E069DDF6013E
:101550008083B394EDCF80E063DDF60180830EC01D
:1015600080911502D81650F4AD2CB12C81E058DDD5
:10157000F501E557FE4F8083D394F2CF8091160298
:101580008111FEDC809115028093930135C081E0CA
:1015900090E0BBD8DFB6F8946091720070E04091A3
:1015A000730084E790E058D91092720055CF809173
:1015B0008A01813089F050F08230B9F08330D1F463
:1015C00082E090E0A2D87FDDA5DD14C0C598BD9A69
:1015D00084E690E09AD80DC08091940180938701B1
:1015E000809195018093880105C082E090E08DD8BC
:1015F0006ADD49DD10928A011092340180913C012C
:10160000882309F432CE80913D0181110DC0809173
:10161000380180933B018091370180933A0180919A
:1016200036018093390119C090913B01981710F44D
:10163000C09801C0C09A90913D0180913A018917EC
:1016400010F4C19801C0C19A90913D018091390177
:10165000891710F4C29801C0C29A80913D018F5F32
:1016600080933D0102CE65E3C80117D080916D00E3
:1016700090916E0061E3019610D080916D00909181
:101680006E0062E3029609D09BCDE199FECF9FBB2D
:101690008EBBE09A99278DB30895262FE199FECF4E
:1016A0001CBA9FBB8EBB2DBB0FB6F894E29AE19A91
:0A16B0000FBE01960895F894FFCFD5
:1016BA00FF5A0A000A0803350031003200200000F0
:00000001FF
